{
  "_format": "hh-sol-artifact-1",
  "contractName": "MyEpicNFT",
  "sourceName": "contracts/MyEpicNFT.sol",
  "abi": [
    {
      "inputs": [],
      "stateMutability": "nonpayable",
      "type": "constructor"
    },
    {
      "anonymous": false,
      "inputs": [
        {
          "indexed": true,
          "internalType": "address",
          "name": "owner",
          "type": "address"
        },
        {
          "indexed": true,
          "internalType": "address",
          "name": "approved",
          "type": "address"
        },
        {
          "indexed": true,
          "internalType": "uint256",
          "name": "tokenId",
          "type": "uint256"
        }
      ],
      "name": "Approval",
      "type": "event"
    },
    {
      "anonymous": false,
      "inputs": [
        {
          "indexed": true,
          "internalType": "address",
          "name": "owner",
          "type": "address"
        },
        {
          "indexed": true,
          "internalType": "address",
          "name": "operator",
          "type": "address"
        },
        {
          "indexed": false,
          "internalType": "bool",
          "name": "approved",
          "type": "bool"
        }
      ],
      "name": "ApprovalForAll",
      "type": "event"
    },
    {
      "anonymous": false,
      "inputs": [
        {
          "indexed": false,
          "internalType": "address",
          "name": "sender",
          "type": "address"
        },
        {
          "indexed": false,
          "internalType": "uint256",
          "name": "tokenId",
          "type": "uint256"
        }
      ],
      "name": "NewEpicNFTMinted",
      "type": "event"
    },
    {
      "anonymous": false,
      "inputs": [
        {
          "indexed": true,
          "internalType": "address",
          "name": "from",
          "type": "address"
        },
        {
          "indexed": true,
          "internalType": "address",
          "name": "to",
          "type": "address"
        },
        {
          "indexed": true,
          "internalType": "uint256",
          "name": "tokenId",
          "type": "uint256"
        }
      ],
      "name": "Transfer",
      "type": "event"
    },
    {
      "inputs": [
        {
          "internalType": "address",
          "name": "to",
          "type": "address"
        },
        {
          "internalType": "uint256",
          "name": "tokenId",
          "type": "uint256"
        }
      ],
      "name": "approve",
      "outputs": [],
      "stateMutability": "nonpayable",
      "type": "function"
    },
    {
      "inputs": [
        {
          "internalType": "address",
          "name": "owner",
          "type": "address"
        }
      ],
      "name": "balanceOf",
      "outputs": [
        {
          "internalType": "uint256",
          "name": "",
          "type": "uint256"
        }
      ],
      "stateMutability": "view",
      "type": "function"
    },
    {
      "inputs": [
        {
          "internalType": "uint256",
          "name": "tokenId",
          "type": "uint256"
        }
      ],
      "name": "getApproved",
      "outputs": [
        {
          "internalType": "address",
          "name": "",
          "type": "address"
        }
      ],
      "stateMutability": "view",
      "type": "function"
    },
    {
      "inputs": [],
      "name": "getTotalNFTsMinted",
      "outputs": [
        {
          "internalType": "uint256",
          "name": "",
          "type": "uint256"
        }
      ],
      "stateMutability": "view",
      "type": "function"
    },
    {
      "inputs": [
        {
          "internalType": "address",
          "name": "owner",
          "type": "address"
        },
        {
          "internalType": "address",
          "name": "operator",
          "type": "address"
        }
      ],
      "name": "isApprovedForAll",
      "outputs": [
        {
          "internalType": "bool",
          "name": "",
          "type": "bool"
        }
      ],
      "stateMutability": "view",
      "type": "function"
    },
    {
      "inputs": [],
      "name": "makeAnEpicNFT",
      "outputs": [],
      "stateMutability": "nonpayable",
      "type": "function"
    },
    {
      "inputs": [],
      "name": "name",
      "outputs": [
        {
          "internalType": "string",
          "name": "",
          "type": "string"
        }
      ],
      "stateMutability": "view",
      "type": "function"
    },
    {
      "inputs": [
        {
          "internalType": "uint256",
          "name": "tokenId",
          "type": "uint256"
        }
      ],
      "name": "ownerOf",
      "outputs": [
        {
          "internalType": "address",
          "name": "",
          "type": "address"
        }
      ],
      "stateMutability": "view",
      "type": "function"
    },
    {
      "inputs": [
        {
          "internalType": "uint256",
          "name": "tokenId",
          "type": "uint256"
        }
      ],
      "name": "pickRandomFirstWord",
      "outputs": [
        {
          "internalType": "string",
          "name": "",
          "type": "string"
        }
      ],
      "stateMutability": "view",
      "type": "function"
    },
    {
      "inputs": [
        {
          "internalType": "uint256",
          "name": "tokenId",
          "type": "uint256"
        }
      ],
      "name": "pickRandomSecondWord",
      "outputs": [
        {
          "internalType": "string",
          "name": "",
          "type": "string"
        }
      ],
      "stateMutability": "view",
      "type": "function"
    },
    {
      "inputs": [
        {
          "internalType": "uint256",
          "name": "tokenId",
          "type": "uint256"
        }
      ],
      "name": "pickRandomThirdWord",
      "outputs": [
        {
          "internalType": "string",
          "name": "",
          "type": "string"
        }
      ],
      "stateMutability": "view",
      "type": "function"
    },
    {
      "inputs": [
        {
          "internalType": "address",
          "name": "from",
          "type": "address"
        },
        {
          "internalType": "address",
          "name": "to",
          "type": "address"
        },
        {
          "internalType": "uint256",
          "name": "tokenId",
          "type": "uint256"
        }
      ],
      "name": "safeTransferFrom",
      "outputs": [],
      "stateMutability": "nonpayable",
      "type": "function"
    },
    {
      "inputs": [
        {
          "internalType": "address",
          "name": "from",
          "type": "address"
        },
        {
          "internalType": "address",
          "name": "to",
          "type": "address"
        },
        {
          "internalType": "uint256",
          "name": "tokenId",
          "type": "uint256"
        },
        {
          "internalType": "bytes",
          "name": "_data",
          "type": "bytes"
        }
      ],
      "name": "safeTransferFrom",
      "outputs": [],
      "stateMutability": "nonpayable",
      "type": "function"
    },
    {
      "inputs": [
        {
          "internalType": "address",
          "name": "operator",
          "type": "address"
        },
        {
          "internalType": "bool",
          "name": "approved",
          "type": "bool"
        }
      ],
      "name": "setApprovalForAll",
      "outputs": [],
      "stateMutability": "nonpayable",
      "type": "function"
    },
    {
      "inputs": [
        {
          "internalType": "bytes4",
          "name": "interfaceId",
          "type": "bytes4"
        }
      ],
      "name": "supportsInterface",
      "outputs": [
        {
          "internalType": "bool",
          "name": "",
          "type": "bool"
        }
      ],
      "stateMutability": "view",
      "type": "function"
    },
    {
      "inputs": [],
      "name": "symbol",
      "outputs": [
        {
          "internalType": "string",
          "name": "",
          "type": "string"
        }
      ],
      "stateMutability": "view",
      "type": "function"
    },
    {
      "inputs": [
        {
          "internalType": "uint256",
          "name": "tokenId",
          "type": "uint256"
        }
      ],
      "name": "tokenURI",
      "outputs": [
        {
          "internalType": "string",
          "name": "",
          "type": "string"
        }
      ],
      "stateMutability": "view",
      "type": "function"
    },
    {
      "inputs": [
        {
          "internalType": "address",
          "name": "from",
          "type": "address"
        },
        {
          "internalType": "address",
          "name": "to",
          "type": "address"
        },
        {
          "internalType": "uint256",
          "name": "tokenId",
          "type": "uint256"
        }
      ],
      "name": "transferFrom",
      "outputs": [],
      "stateMutability": "nonpayable",
      "type": "function"
    }
  ],
  "bytecode": "0x6080604052603260085560405180610160016040528061012f81526020016200498e61012f9139600990805190602001906200003d92919062000cbf565b50604051806101e001604052806040518060400160405280600781526020017f537061726b6c790000000000000000000000000000000000000000000000000081525081526020016040518060400160405280600c81526020017f4f62737472657065726f7573000000000000000000000000000000000000000081525081526020016040518060400160405280600a81526020017f436f75726167656f75730000000000000000000000000000000000000000000081525081526020016040518060400160405280600a81526020017f46726f6c69636b696e670000000000000000000000000000000000000000000081525081526020016040518060400160405280600781526020017f436f72727570740000000000000000000000000000000000000000000000000081525081526020016040518060400160405280600a81526020017f466c6174746572696e670000000000000000000000000000000000000000000081525081526020016040518060400160405280600881526020017f48656c706c65737300000000000000000000000000000000000000000000000081525081526020016040518060400160405280600a81526020017f4469706c6f6d617469630000000000000000000000000000000000000000000081525081526020016040518060400160405280600a81526020017f466f72747569746f75730000000000000000000000000000000000000000000081525081526020016040518060400160405280600d81526020017f5068696c6f736f70686963616c0000000000000000000000000000000000000081525081526020016040518060400160405280600981526020017f426f646163696f7573000000000000000000000000000000000000000000000081525081526020016040518060400160405280600881526020017f4172726f67616e7400000000000000000000000000000000000000000000000081525081526020016040518060400160405280600781526020017f43796e6963616c0000000000000000000000000000000000000000000000000081525081526020016040518060400160405280600a81526020017f446567656e65726174650000000000000000000000000000000000000000000081525081526020016040518060400160405280600a81526020017f4172746966696369616c00000000000000000000000000000000000000000000815250815250600a90600f620003cf92919062000d50565b50604051806101e001604052806040518060400160405280600581526020017f4879656e6100000000000000000000000000000000000000000000000000000081525081526020016040518060400160405280600581526020017f4269736f6e00000000000000000000000000000000000000000000000000000081525081526020016040518060400160405280600981526020017f4561727468776f726d000000000000000000000000000000000000000000000081525081526020016040518060400160405280600681526020017f476962626f6e000000000000000000000000000000000000000000000000000081525081526020016040518060400160405280600881526020017f486f727365666c7900000000000000000000000000000000000000000000000081525081526020016040518060400160405280600681526020017f4d6167706965000000000000000000000000000000000000000000000000000081525081526020016040518060400160405280600481526020017f4c796e780000000000000000000000000000000000000000000000000000000081525081526020016040518060400160405280600781526020017f50656e6775696e0000000000000000000000000000000000000000000000000081525081526020016040518060400160405280600781526020017f53617264696e650000000000000000000000000000000000000000000000000081525081526020016040518060400160405280600681526020017f546f7563616e000000000000000000000000000000000000000000000000000081525081526020016040518060400160405280600481526020017f576173700000000000000000000000000000000000000000000000000000000081525081526020016040518060400160405280600581526020017f5a6562726100000000000000000000000000000000000000000000000000000081525081526020016040518060400160405280600981526020017f4f72616e677574616e000000000000000000000000000000000000000000000081525081526020016040518060400160405280600481526020017f4e6577740000000000000000000000000000000000000000000000000000000081525081526020016040518060400160405280600981526020017f4368616d656c656f6e0000000000000000000000000000000000000000000000815250815250600b90600f6200076192919062000d50565b50604051806101e001604052806040518060400160405280600981526020017f53796e646963617465000000000000000000000000000000000000000000000081525081526020016040518060400160405280600481526020017f436f72700000000000000000000000000000000000000000000000000000000081525081526020016040518060400160405280600381526020017f44414f000000000000000000000000000000000000000000000000000000000081525081526020016040518060400160405280600581526020017f547269626500000000000000000000000000000000000000000000000000000081525081526020016040518060400160405280600981526020017f436f6d6d756e697479000000000000000000000000000000000000000000000081525081526020016040518060400160405280600481526020017f437265770000000000000000000000000000000000000000000000000000000081525081526020016040518060400160405280600681526020017f43617274656c000000000000000000000000000000000000000000000000000081525081526020016040518060400160405280600481526020017f436c75620000000000000000000000000000000000000000000000000000000081525081526020016040518060400160405280600481526020017f47616e670000000000000000000000000000000000000000000000000000000081525081526020016040518060400160405280600a81526020017f436f6c6c6563746976650000000000000000000000000000000000000000000081525081526020016040518060400160405280600581526020017f537175616400000000000000000000000000000000000000000000000000000081525081526020016040518060400160405280600481526020017f436c616e0000000000000000000000000000000000000000000000000000000081525081526020016040518060400160405280600381526020017f4d6f62000000000000000000000000000000000000000000000000000000000081525081526020016040518060400160405280600581526020017f436162616c00000000000000000000000000000000000000000000000000000081525081526020016040518060400160405280600581526020017f506f737365000000000000000000000000000000000000000000000000000000815250815250600c90600f62000af392919062000d50565b5034801562000b0157600080fd5b506040518060400160405280600981526020017f5371756172654e465400000000000000000000000000000000000000000000008152506040518060400160405280600681526020017f5351554152450000000000000000000000000000000000000000000000000000815250816000908051906020019062000b8692919062000cbf565b50806001908051906020019062000b9f92919062000cbf565b50505062000bed6040518060400160405280601e81526020017f54686973206973206d79204e465420636f6e74726163742e2057686f6121000081525062000bf360201b6200115f1760201c565b62000f71565b62000c938160405160240162000c0a919062000e85565b6040516020818303038152906040527f41304fac000000000000000000000000000000000000000000000000000000007bffffffffffffffffffffffffffffffffffffffffffffffffffffffff19166020820180517bffffffffffffffffffffffffffffffffffffffffffffffffffffffff838183161783525050505062000c9660201b60201c565b50565b60008151905060006a636f6e736f6c652e6c6f679050602083016000808483855afa5050505050565b82805462000ccd9062000efb565b90600052602060002090601f01602090048101928262000cf1576000855562000d3d565b82601f1062000d0c57805160ff191683800117855562000d3d565b8280016001018555821562000d3d579182015b8281111562000d3c57825182559160200191906001019062000d1f565b5b50905062000d4c919062000db7565b5090565b82805482825590600052602060002090810192821562000da4579160200282015b8281111562000da357825182908051906020019062000d9292919062000cbf565b509160200191906001019062000d71565b5b50905062000db3919062000dd6565b5090565b5b8082111562000dd257600081600090555060010162000db8565b5090565b5b8082111562000dfa576000818162000df0919062000dfe565b5060010162000dd7565b5090565b50805462000e0c9062000efb565b6000825580601f1062000e20575062000e41565b601f01602090049060005260206000209081019062000e40919062000db7565b5b50565b600062000e518262000ea9565b62000e5d818562000eb4565b935062000e6f81856020860162000ec5565b62000e7a8162000f60565b840191505092915050565b6000602082019050818103600083015262000ea1818462000e44565b905092915050565b600081519050919050565b600082825260208201905092915050565b60005b8381101562000ee557808201518184015260208101905062000ec8565b8381111562000ef5576000848401525b50505050565b6000600282049050600182168062000f1457607f821691505b6020821081141562000f2b5762000f2a62000f31565b5b50919050565b7f4e487b7100000000000000000000000000000000000000000000000000000000600052602260045260246000fd5b6000601f19601f8301169050919050565b613a0d8062000f816000396000f3fe608060405234801561001057600080fd5b50600436106101165760003560e01c806395d89b41116100a2578063b88d4fde11610071578063b88d4fde14610305578063c575757a14610321578063c87b56dd14610351578063de9d132f14610381578063e985e9c51461038b57610116565b806395d89b411461027d578063a22cb4651461029b578063b187301f146102b7578063b4c3b8be146102e757610116565b806323b872dd116100e957806323b872dd146101b55780632de38d68146101d157806342842e0e146102015780636352211e1461021d57806370a082311461024d57610116565b806301ffc9a71461011b57806306fdde031461014b578063081812fc14610169578063095ea7b314610199575b600080fd5b6101356004803603810190610130919061255f565b6103bb565b6040516101429190613263565b60405180910390f35b61015361049d565b604051610160919061327e565b60405180910390f35b610183600480360381019061017e91906125b1565b61052f565b60405161019091906131d3565b60405180910390f35b6101b360048036038101906101ae9190612523565b6105b4565b005b6101cf60048036038101906101ca919061241d565b6106cc565b005b6101eb60048036038101906101e691906125b1565b61072c565b6040516101f8919061327e565b60405180910390f35b61021b6004803603810190610216919061241d565b61084a565b005b610237600480360381019061023291906125b1565b61086a565b60405161024491906131d3565b60405180910390f35b610267600480360381019061026291906123b8565b61091c565b60405161027491906134fe565b60405180910390f35b6102856109d4565b604051610292919061327e565b60405180910390f35b6102b560048036038101906102b091906124e7565b610a66565b005b6102d160048036038101906102cc91906125b1565b610a7c565b6040516102de919061327e565b60405180910390f35b6102ef610b9a565b6040516102fc91906134fe565b60405180910390f35b61031f600480360381019061031a919061246c565b610bab565b005b61033b600480360381019061033691906125b1565b610c0d565b604051610348919061327e565b60405180910390f35b61036b600480360381019061036691906125b1565b610d2b565b604051610378919061327e565b60405180910390f35b610389610e7d565b005b6103a560048036038101906103a091906123e1565b6110cb565b6040516103b29190613263565b60405180910390f35b60007f80ac58cd000000000000000000000000000000000000000000000000000000007bffffffffffffffffffffffffffffffffffffffffffffffffffffffff1916827bffffffffffffffffffffffffffffffffffffffffffffffffffffffff1916148061048657507f5b5e139f000000000000000000000000000000000000000000000000000000007bffffffffffffffffffffffffffffffffffffffffffffffffffffffff1916827bffffffffffffffffffffffffffffffffffffffffffffffffffffffff1916145b806104965750610495826111f8565b5b9050919050565b6060600080546104ac9061379d565b80601f01602080910402602001604051908101604052809291908181526020018280546104d89061379d565b80156105255780601f106104fa57610100808354040283529160200191610525565b820191906000526020600020905b81548152906001019060200180831161050857829003601f168201915b5050505050905090565b600061053a82611262565b610579576040517f08c379a00000000000000000000000000000000000000000000000000000000081526004016105709061345e565b60405180910390fd5b6004600083815260200190815260200160002060009054906101000a900473ffffffffffffffffffffffffffffffffffffffff169050919050565b60006105bf8261086a565b90508073ffffffffffffffffffffffffffffffffffffffff168373ffffffffffffffffffffffffffffffffffffffff161415610630576040517f08c379a0000000000000000000000000000000000000000000000000000000008152600401610627906134be565b60405180910390fd5b8073ffffffffffffffffffffffffffffffffffffffff1661064f6112ce565b73ffffffffffffffffffffffffffffffffffffffff16148061067e575061067d816106786112ce565b6110cb565b5b6106bd576040517f08c379a00000000000000000000000000000000000000000000000000000000081526004016106b49061339e565b60405180910390fd5b6106c783836112d6565b505050565b6106dd6106d76112ce565b8261138f565b61071c576040517f08c379a0000000000000000000000000000000000000000000000000000000008152600401610713906134de565b60405180910390fd5b61072783838361146d565b505050565b6060600061076061073c846116c9565b60405160200161074c919061318f565b604051602081830303815290604052611876565b9050600a80549050816107739190613818565b9050600a81815481106107af577f4e487b7100000000000000000000000000000000000000000000000000000000600052603260045260246000fd5b9060005260206000200180546107c49061379d565b80601f01602080910402602001604051908101604052809291908181526020018280546107f09061379d565b801561083d5780601f106108125761010080835404028352916020019161083d565b820191906000526020600020905b81548152906001019060200180831161082057829003601f168201915b5050505050915050919050565b61086583838360405180602001604052806000815250610bab565b505050565b6000806002600084815260200190815260200160002060009054906101000a900473ffffffffffffffffffffffffffffffffffffffff169050600073ffffffffffffffffffffffffffffffffffffffff168173ffffffffffffffffffffffffffffffffffffffff161415610913576040517f08c379a000000000000000000000000000000000000000000000000000000000815260040161090a906133de565b60405180910390fd5b80915050919050565b60008073ffffffffffffffffffffffffffffffffffffffff168273ffffffffffffffffffffffffffffffffffffffff16141561098d576040517f08c379a0000000000000000000000000000000000000000000000000000000008152600401610984906133be565b60405180910390fd5b600360008373ffffffffffffffffffffffffffffffffffffffff1673ffffffffffffffffffffffffffffffffffffffff168152602001908152602001600020549050919050565b6060600180546109e39061379d565b80601f0160208091040260200160405190810160405280929190818152602001828054610a0f9061379d565b8015610a5c5780601f10610a3157610100808354040283529160200191610a5c565b820191906000526020600020905b815481529060010190602001808311610a3f57829003601f168201915b5050505050905090565b610a78610a716112ce565b83836118a9565b5050565b60606000610ab0610a8c846116c9565b604051602001610a9c919061316d565b604051602081830303815290604052611876565b9050600b8054905081610ac39190613818565b9050600b8181548110610aff577f4e487b7100000000000000000000000000000000000000000000000000000000600052603260045260246000fd5b906000526020600020018054610b149061379d565b80601f0160208091040260200160405190810160405280929190818152602001828054610b409061379d565b8015610b8d5780601f10610b6257610100808354040283529160200191610b8d565b820191906000526020600020905b815481529060010190602001808311610b7057829003601f168201915b5050505050915050919050565b6000610ba66007611a16565b905090565b610bbc610bb66112ce565b8361138f565b610bfb576040517f08c379a0000000000000000000000000000000000000000000000000000000008152600401610bf2906134de565b60405180910390fd5b610c0784848484611a24565b50505050565b60606000610c41610c1d846116c9565b604051602001610c2d919061314b565b604051602081830303815290604052611876565b9050600c8054905081610c549190613818565b9050600c8181548110610c90577f4e487b7100000000000000000000000000000000000000000000000000000000600052603260045260246000fd5b906000526020600020018054610ca59061379d565b80601f0160208091040260200160405190810160405280929190818152602001828054610cd19061379d565b8015610d1e5780601f10610cf357610100808354040283529160200191610d1e565b820191906000526020600020905b815481529060010190602001808311610d0157829003601f168201915b5050505050915050919050565b6060610d3682611262565b610d75576040517f08c379a0000000000000000000000000000000000000000000000000000000008152600401610d6c9061343e565b60405180910390fd5b6000600660008481526020019081526020016000208054610d959061379d565b80601f0160208091040260200160405190810160405280929190818152602001828054610dc19061379d565b8015610e0e5780601f10610de357610100808354040283529160200191610e0e565b820191906000526020600020905b815481529060010190602001808311610df157829003601f168201915b505050505090506000610e1f611a80565b9050600081511415610e35578192505050610e78565b600082511115610e6a578082604051602001610e52929190613046565b60405160208183030381529060405292505050610e78565b610e7384611a97565b925050505b919050565b6000610e896007611a16565b90506008548110610ecf576040517f08c379a0000000000000000000000000000000000000000000000000000000008152600401610ec69061335e565b60405180910390fd5b6000610eda8261072c565b90506000610ee783610a7c565b90506000610ef484610c0d565b90506000838383604051602001610f0d9392919061306a565b604051602081830303815290604052905060006009858585604051602001610f38949392919061309b565b60405160208183030381529060405290506000610f7d83610f5884611b3e565b604051602001610f69929190613106565b604051602081830303815290604052611b3e565b9050600081604051602001610f9291906131b1565b6040516020818303038152906040529050610fe16040518060400160405280601081526020017f0a2d2d2d2d2d2d2d2d2d2d2d2d2d2d2d0000000000000000000000000000000081525061115f565b61100981604051602001610ff591906130e4565b60405160208183030381529060405261115f565b6110476040518060400160405280601081526020017f2d2d2d2d2d2d2d2d2d2d2d2d2d2d2d0a0000000000000000000000000000000081525061115f565b6110513389611cfc565b61105b8882611d1a565b6110656007611d8e565b611088604051806060016040528060258152602001613973602591398933611da4565b7febb98688741ffa4c7589bf325de30cf7becb63de567842e1ccdb6cb949fdc82c33896040516110b992919061323a565b60405180910390a15050505050505050565b6000600560008473ffffffffffffffffffffffffffffffffffffffff1673ffffffffffffffffffffffffffffffffffffffff16815260200190815260200160002060008373ffffffffffffffffffffffffffffffffffffffff1673ffffffffffffffffffffffffffffffffffffffff16815260200190815260200160002060009054906101000a900460ff16905092915050565b6111f581604051602401611173919061327e565b6040516020818303038152906040527f41304fac000000000000000000000000000000000000000000000000000000007bffffffffffffffffffffffffffffffffffffffffffffffffffffffff19166020820180517bffffffffffffffffffffffffffffffffffffffffffffffffffffffff8381831617835250505050611e43565b50565b60007f01ffc9a7000000000000000000000000000000000000000000000000000000007bffffffffffffffffffffffffffffffffffffffffffffffffffffffff1916827bffffffffffffffffffffffffffffffffffffffffffffffffffffffff1916149050919050565b60008073ffffffffffffffffffffffffffffffffffffffff166002600084815260200190815260200160002060009054906101000a900473ffffffffffffffffffffffffffffffffffffffff1673ffffffffffffffffffffffffffffffffffffffff1614159050919050565b600033905090565b816004600083815260200190815260200160002060006101000a81548173ffffffffffffffffffffffffffffffffffffffff021916908373ffffffffffffffffffffffffffffffffffffffff160217905550808273ffffffffffffffffffffffffffffffffffffffff166113498361086a565b73ffffffffffffffffffffffffffffffffffffffff167f8c5be1e5ebec7d5bd14f71427d1e84f3dd0314c0f7b2291e5b200ac8c7c3b92560405160405180910390a45050565b600061139a82611262565b6113d9576040517f08c379a00000000000000000000000000000000000000000000000000000000081526004016113d09061337e565b60405180910390fd5b60006113e48361086a565b90508073ffffffffffffffffffffffffffffffffffffffff168473ffffffffffffffffffffffffffffffffffffffff16148061145357508373ffffffffffffffffffffffffffffffffffffffff1661143b8461052f565b73ffffffffffffffffffffffffffffffffffffffff16145b80611464575061146381856110cb565b5b91505092915050565b8273ffffffffffffffffffffffffffffffffffffffff1661148d8261086a565b73ffffffffffffffffffffffffffffffffffffffff16146114e3576040517f08c379a00000000000000000000000000000000000000000000000000000000081526004016114da9061347e565b60405180910390fd5b600073ffffffffffffffffffffffffffffffffffffffff168273ffffffffffffffffffffffffffffffffffffffff161415611553576040517f08c379a000000000000000000000000000000000000000000000000000000000815260040161154a9061331e565b60405180910390fd5b61155e838383611e6c565b6115696000826112d6565b6001600360008573ffffffffffffffffffffffffffffffffffffffff1673ffffffffffffffffffffffffffffffffffffffff16815260200190815260200160002060008282546115b991906136b3565b925050819055506001600360008473ffffffffffffffffffffffffffffffffffffffff1673ffffffffffffffffffffffffffffffffffffffff168152602001908152602001600020600082825461161091906135d2565b92505081905550816002600083815260200190815260200160002060006101000a81548173ffffffffffffffffffffffffffffffffffffffff021916908373ffffffffffffffffffffffffffffffffffffffff160217905550808273ffffffffffffffffffffffffffffffffffffffff168473ffffffffffffffffffffffffffffffffffffffff167fddf252ad1be2c89b69c2b068fc378daa952ba7f163c4a11628f55a4df523b3ef60405160405180910390a4505050565b60606000821415611711576040518060400160405280600181526020017f30000000000000000000000000000000000000000000000000000000000000008152509050611871565b600082905060005b6000821461174357808061172c906137cf565b915050600a8261173c9190613628565b9150611719565b60008167ffffffffffffffff811115611785577f4e487b7100000000000000000000000000000000000000000000000000000000600052604160045260246000fd5b6040519080825280601f01601f1916602001820160405280156117b75781602001600182028036833780820191505090505b5090505b6000851461186a576001826117d091906136b3565b9150600a856117df9190613818565b60306117eb91906135d2565b60f81b818381518110611827577f4e487b7100000000000000000000000000000000000000000000000000000000600052603260045260246000fd5b60200101907effffffffffffffffffffffffffffffffffffffffffffffffffffffffffffff1916908160001a905350600a856118639190613628565b94506117bb565b8093505050505b919050565b600081604051602001611889919061302f565b6040516020818303038152906040528051906020012060001c9050919050565b8173ffffffffffffffffffffffffffffffffffffffff168373ffffffffffffffffffffffffffffffffffffffff161415611918576040517f08c379a000000000000000000000000000000000000000000000000000000000815260040161190f9061333e565b60405180910390fd5b80600560008573ffffffffffffffffffffffffffffffffffffffff1673ffffffffffffffffffffffffffffffffffffffff16815260200190815260200160002060008473ffffffffffffffffffffffffffffffffffffffff1673ffffffffffffffffffffffffffffffffffffffff16815260200190815260200160002060006101000a81548160ff0219169083151502179055508173ffffffffffffffffffffffffffffffffffffffff168373ffffffffffffffffffffffffffffffffffffffff167f17307eab39ab6107e8899845ad3d59bd9653f200f220920489ca2b5937696c3183604051611a099190613263565b60405180910390a3505050565b600081600001549050919050565b611a2f84848461146d565b611a3b84848484611e71565b611a7a576040517f08c379a0000000000000000000000000000000000000000000000000000000008152600401611a71906132de565b60405180910390fd5b50505050565b606060405180602001604052806000815250905090565b6060611aa282611262565b611ae1576040517f08c379a0000000000000000000000000000000000000000000000000000000008152600401611ad89061349e565b60405180910390fd5b6000611aeb611a80565b90506000815111611b0b5760405180602001604052806000815250611b36565b80611b15846116c9565b604051602001611b26929190613046565b6040516020818303038152906040525b915050919050565b60606000825190506000811415611b675760405180602001604052806000815250915050611cf7565b60006003600283611b7891906135d2565b611b829190613628565b6004611b8e9190613659565b90506000602082611b9f91906135d2565b67ffffffffffffffff811115611bde577f4e487b7100000000000000000000000000000000000000000000000000000000600052604160045260246000fd5b6040519080825280601f01601f191660200182016040528015611c105781602001600182028036833780820191505090505b5090506000604051806060016040528060408152602001613998604091399050600181016020830160005b86811015611cb45760038101905062ffffff818a015116603f8160121c168401518060081b905060ff603f83600c1c1686015116810190508060081b905060ff603f8360061c1686015116810190508060081b905060ff603f831686015116810190508060e01b90508084526004840193505050611c3b565b506003860660018114611cce5760028114611cde57611ce9565b613d3d60f01b6002830352611ce9565b603d60f81b60018303525b508484525050819450505050505b919050565b611d16828260405180602001604052806000815250612008565b5050565b611d2382611262565b611d62576040517f08c379a0000000000000000000000000000000000000000000000000000000008152600401611d59906133fe565b60405180910390fd5b80600660008481526020019081526020016000209080519060200190611d89929190612244565b505050565b6001816000016000828254019250508190555050565b611e3e838383604051602401611dbc939291906132a0565b6040516020818303038152906040527fe3849f79000000000000000000000000000000000000000000000000000000007bffffffffffffffffffffffffffffffffffffffffffffffffffffffff19166020820180517bffffffffffffffffffffffffffffffffffffffffffffffffffffffff8381831617835250505050611e43565b505050565b60008151905060006a636f6e736f6c652e6c6f679050602083016000808483855afa5050505050565b505050565b6000611e928473ffffffffffffffffffffffffffffffffffffffff16612063565b15611ffb578373ffffffffffffffffffffffffffffffffffffffff1663150b7a02611ebb6112ce565b8786866040518563ffffffff1660e01b8152600401611edd94939291906131ee565b602060405180830381600087803b158015611ef757600080fd5b505af1925050508015611f2857506040513d601f19601f82011682018060405250810190611f259190612588565b60015b611fab573d8060008114611f58576040519150601f19603f3d011682016040523d82523d6000602084013e611f5d565b606091505b50600081511415611fa3576040517f08c379a0000000000000000000000000000000000000000000000000000000008152600401611f9a906132de565b60405180910390fd5b805181602001fd5b63150b7a0260e01b7bffffffffffffffffffffffffffffffffffffffffffffffffffffffff1916817bffffffffffffffffffffffffffffffffffffffffffffffffffffffff191614915050612000565b600190505b949350505050565b6120128383612076565b61201f6000848484611e71565b61205e576040517f08c379a0000000000000000000000000000000000000000000000000000000008152600401612055906132de565b60405180910390fd5b505050565b600080823b905060008111915050919050565b600073ffffffffffffffffffffffffffffffffffffffff168273ffffffffffffffffffffffffffffffffffffffff1614156120e6576040517f08c379a00000000000000000000000000000000000000000000000000000000081526004016120dd9061341e565b60405180910390fd5b6120ef81611262565b1561212f576040517f08c379a0000000000000000000000000000000000000000000000000000000008152600401612126906132fe565b60405180910390fd5b61213b60008383611e6c565b6001600360008473ffffffffffffffffffffffffffffffffffffffff1673ffffffffffffffffffffffffffffffffffffffff168152602001908152602001600020600082825461218b91906135d2565b92505081905550816002600083815260200190815260200160002060006101000a81548173ffffffffffffffffffffffffffffffffffffffff021916908373ffffffffffffffffffffffffffffffffffffffff160217905550808273ffffffffffffffffffffffffffffffffffffffff16600073ffffffffffffffffffffffffffffffffffffffff167fddf252ad1be2c89b69c2b068fc378daa952ba7f163c4a11628f55a4df523b3ef60405160405180910390a45050565b8280546122509061379d565b90600052602060002090601f01602090048101928261227257600085556122b9565b82601f1061228b57805160ff19168380011785556122b9565b828001600101855582156122b9579182015b828111156122b857825182559160200191906001019061229d565b5b5090506122c691906122ca565b5090565b5b808211156122e35760008160009055506001016122cb565b5090565b60006122fa6122f58461354a565b613519565b90508281526020810184848401111561231257600080fd5b61231d84828561375b565b509392505050565b60008135905061233481613916565b92915050565b6000813590506123498161392d565b92915050565b60008135905061235e81613944565b92915050565b60008151905061237381613944565b92915050565b600082601f83011261238a57600080fd5b813561239a8482602086016122e7565b91505092915050565b6000813590506123b28161395b565b92915050565b6000602082840312156123ca57600080fd5b60006123d884828501612325565b91505092915050565b600080604083850312156123f457600080fd5b600061240285828601612325565b925050602061241385828601612325565b9150509250929050565b60008060006060848603121561243257600080fd5b600061244086828701612325565b935050602061245186828701612325565b9250506040612462868287016123a3565b9150509250925092565b6000806000806080858703121561248257600080fd5b600061249087828801612325565b94505060206124a187828801612325565b93505060406124b2878288016123a3565b925050606085013567ffffffffffffffff8111156124cf57600080fd5b6124db87828801612379565b91505092959194509250565b600080604083850312156124fa57600080fd5b600061250885828601612325565b92505060206125198582860161233a565b9150509250929050565b6000806040838503121561253657600080fd5b600061254485828601612325565b9250506020612555858286016123a3565b9150509250929050565b60006020828403121561257157600080fd5b600061257f8482850161234f565b91505092915050565b60006020828403121561259a57600080fd5b60006125a884828501612364565b91505092915050565b6000602082840312156125c357600080fd5b60006125d1848285016123a3565b91505092915050565b6125e3816136e7565b82525050565b6125f2816136f9565b82525050565b60006126038261358f565b61260d81856135a5565b935061261d81856020860161376a565b61262681613905565b840191505092915050565b600061263c8261359a565b61264681856135b6565b935061265681856020860161376a565b61265f81613905565b840191505092915050565b60006126758261359a565b61267f81856135c7565b935061268f81856020860161376a565b80840191505092915050565b600081546126a88161379d565b6126b281866135c7565b945060018216600081146126cd57600181146126de57612711565b60ff19831686528186019350612711565b6126e78561357a565b60005b83811015612709578154818901526001820191506020810190506126ea565b838801955050505b50505092915050565b60006127276025836135c7565b91507f68747470733a2f2f6e6674707265766965772e30786465762e636f6465732f3f60008301527f636f64653d0000000000000000000000000000000000000000000000000000006020830152602582019050919050565b600061278d6009836135c7565b91507f7b226e616d65223a2200000000000000000000000000000000000000000000006000830152600982019050919050565b60006127cd6032836135b6565b91507f4552433732313a207472616e7366657220746f206e6f6e20455243373231526560008301527f63656976657220696d706c656d656e74657200000000000000000000000000006020830152604082019050919050565b6000612833601c836135b6565b91507f4552433732313a20746f6b656e20616c7265616479206d696e746564000000006000830152602082019050919050565b6000612873600a836135c7565b91507f54484952445f574f5244000000000000000000000000000000000000000000006000830152600a82019050919050565b60006128b36024836135b6565b91507f4552433732313a207472616e7366657220746f20746865207a65726f2061646460008301527f72657373000000000000000000000000000000000000000000000000000000006020830152604082019050919050565b60006129196019836135b6565b91507f4552433732313a20617070726f766520746f2063616c6c6572000000000000006000830152602082019050919050565b60006129596063836135c7565b91507f222c20226465736372697074696f6e223a20224120686967686c79206163636c60008301527f61696d656420636f6c6c656374696f6e206f6620737175617265732e222c202260208301527f696d616765223a2022646174613a696d6167652f7376672b786d6c3b6261736560408301527f36342c00000000000000000000000000000000000000000000000000000000006060830152606382019050919050565b6000612a0b601a836135b6565b91507f416c6c204e4654732068617665206265656e206d696e7465642e0000000000006000830152602082019050919050565b6000612a4b600b836135c7565b91507f5345434f4e445f574f52440000000000000000000000000000000000000000006000830152600b82019050919050565b6000612a8b602c836135b6565b91507f4552433732313a206f70657261746f7220717565727920666f72206e6f6e657860008301527f697374656e7420746f6b656e00000000000000000000000000000000000000006020830152604082019050919050565b6000612af1600d836135c7565b91507f3c2f746578743e3c2f7376673e000000000000000000000000000000000000006000830152600d82019050919050565b6000612b316038836135b6565b91507f4552433732313a20617070726f76652063616c6c6572206973206e6f74206f7760008301527f6e6572206e6f7220617070726f76656420666f7220616c6c00000000000000006020830152604082019050919050565b6000612b97602a836135b6565b91507f4552433732313a2062616c616e636520717565727920666f7220746865207a6560008301527f726f2061646472657373000000000000000000000000000000000000000000006020830152604082019050919050565b6000612bfd6029836135b6565b91507f4552433732313a206f776e657220717565727920666f72206e6f6e657869737460008301527f656e7420746f6b656e00000000000000000000000000000000000000000000006020830152604082019050919050565b6000612c63602e836135b6565b91507f45524337323155524953746f726167653a2055524920736574206f66206e6f6e60008301527f6578697374656e7420746f6b656e0000000000000000000000000000000000006020830152604082019050919050565b6000612cc96002836135c7565b91507f227d0000000000000000000000000000000000000000000000000000000000006000830152600282019050919050565b6000612d096020836135b6565b91507f4552433732313a206d696e7420746f20746865207a65726f20616464726573736000830152602082019050919050565b6000612d496031836135b6565b91507f45524337323155524953746f726167653a2055524920717565727920666f722060008301527f6e6f6e6578697374656e7420746f6b656e0000000000000000000000000000006020830152604082019050919050565b6000612daf602c836135b6565b91507f4552433732313a20617070726f76656420717565727920666f72206e6f6e657860008301527f697374656e7420746f6b656e00000000000000000000000000000000000000006020830152604082019050919050565b6000612e156029836135b6565b91507f4552433732313a207472616e73666572206f6620746f6b656e2074686174206960008301527f73206e6f74206f776e00000000000000000000000000000000000000000000006020830152604082019050919050565b6000612e7b602f836135b6565b91507f4552433732314d657461646174613a2055524920717565727920666f72206e6f60008301527f6e6578697374656e7420746f6b656e00000000000000000000000000000000006020830152604082019050919050565b6000612ee16021836135b6565b91507f4552433732313a20617070726f76616c20746f2063757272656e74206f776e6560008301527f72000000000000000000000000000000000000000000000000000000000000006020830152604082019050919050565b6000612f47600a836135c7565b91507f46495253545f574f5244000000000000000000000000000000000000000000006000830152600a82019050919050565b6000612f87601d836135c7565b91507f646174613a6170706c69636174696f6e2f6a736f6e3b6261736536342c0000006000830152601d82019050919050565b6000612fc76031836135b6565b91507f4552433732313a207472616e736665722063616c6c6572206973206e6f74206f60008301527f776e6572206e6f7220617070726f7665640000000000000000000000000000006020830152604082019050919050565b61302981613751565b82525050565b600061303b828461266a565b915081905092915050565b6000613052828561266a565b915061305e828461266a565b91508190509392505050565b6000613076828661266a565b9150613082828561266a565b915061308e828461266a565b9150819050949350505050565b60006130a7828761269b565b91506130b3828661266a565b91506130bf828561266a565b91506130cb828461266a565b91506130d682612ae4565b915081905095945050505050565b60006130ef8261271a565b91506130fb828461266a565b915081905092915050565b600061311182612780565b915061311d828561266a565b91506131288261294c565b9150613134828461266a565b915061313f82612cbc565b91508190509392505050565b600061315682612866565b9150613162828461266a565b915081905092915050565b600061317882612a3e565b9150613184828461266a565b915081905092915050565b600061319a82612f3a565b91506131a6828461266a565b915081905092915050565b60006131bc82612f7a565b91506131c8828461266a565b915081905092915050565b60006020820190506131e860008301846125da565b92915050565b600060808201905061320360008301876125da565b61321060208301866125da565b61321d6040830185613020565b818103606083015261322f81846125f8565b905095945050505050565b600060408201905061324f60008301856125da565b61325c6020830184613020565b9392505050565b600060208201905061327860008301846125e9565b92915050565b600060208201905081810360008301526132988184612631565b905092915050565b600060608201905081810360008301526132ba8186612631565b90506132c96020830185613020565b6132d660408301846125da565b949350505050565b600060208201905081810360008301526132f7816127c0565b9050919050565b6000602082019050818103600083015261331781612826565b9050919050565b60006020820190508181036000830152613337816128a6565b9050919050565b600060208201905081810360008301526133578161290c565b9050919050565b60006020820190508181036000830152613377816129fe565b9050919050565b6000602082019050818103600083015261339781612a7e565b9050919050565b600060208201905081810360008301526133b781612b24565b9050919050565b600060208201905081810360008301526133d781612b8a565b9050919050565b600060208201905081810360008301526133f781612bf0565b9050919050565b6000602082019050818103600083015261341781612c56565b9050919050565b6000602082019050818103600083015261343781612cfc565b9050919050565b6000602082019050818103600083015261345781612d3c565b9050919050565b6000602082019050818103600083015261347781612da2565b9050919050565b6000602082019050818103600083015261349781612e08565b9050919050565b600060208201905081810360008301526134b781612e6e565b9050919050565b600060208201905081810360008301526134d781612ed4565b9050919050565b600060208201905081810360008301526134f781612fba565b9050919050565b60006020820190506135136000830184613020565b92915050565b6000604051905081810181811067ffffffffffffffff821117156135405761353f6138d6565b5b8060405250919050565b600067ffffffffffffffff821115613565576135646138d6565b5b601f19601f8301169050602081019050919050565b60008190508160005260206000209050919050565b600081519050919050565b600081519050919050565b600082825260208201905092915050565b600082825260208201905092915050565b600081905092915050565b60006135dd82613751565b91506135e883613751565b9250827fffffffffffffffffffffffffffffffffffffffffffffffffffffffffffffffff0382111561361d5761361c613849565b5b828201905092915050565b600061363382613751565b915061363e83613751565b92508261364e5761364d613878565b5b828204905092915050565b600061366482613751565b915061366f83613751565b9250817fffffffffffffffffffffffffffffffffffffffffffffffffffffffffffffffff04831182151516156136a8576136a7613849565b5b828202905092915050565b60006136be82613751565b91506136c983613751565b9250828210156136dc576136db613849565b5b828203905092915050565b60006136f282613731565b9050919050565b60008115159050919050565b60007fffffffff0000000000000000000000000000000000000000000000000000000082169050919050565b600073ffffffffffffffffffffffffffffffffffffffff82169050919050565b6000819050919050565b82818337600083830152505050565b60005b8381101561378857808201518184015260208101905061376d565b83811115613797576000848401525b50505050565b600060028204905060018216806137b557607f821691505b602082108114156137c9576137c86138a7565b5b50919050565b60006137da82613751565b91507fffffffffffffffffffffffffffffffffffffffffffffffffffffffffffffffff82141561380d5761380c613849565b5b600182019050919050565b600061382382613751565b915061382e83613751565b92508261383e5761383d613878565b5b828206905092915050565b7f4e487b7100000000000000000000000000000000000000000000000000000000600052601160045260246000fd5b7f4e487b7100000000000000000000000000000000000000000000000000000000600052601260045260246000fd5b7f4e487b7100000000000000000000000000000000000000000000000000000000600052602260045260246000fd5b7f4e487b7100000000000000000000000000000000000000000000000000000000600052604160045260246000fd5b6000601f19601f8301169050919050565b61391f816136e7565b811461392a57600080fd5b50565b613936816136f9565b811461394157600080fd5b50565b61394d81613705565b811461395857600080fd5b50565b61396481613751565b811461396f57600080fd5b5056fe416e204e465420772f20494420257320686173206265656e206d696e74656420746f2025734142434445464748494a4b4c4d4e4f505152535455565758595a6162636465666768696a6b6c6d6e6f707172737475767778797a303132333435363738392b2fa26469706673582212203dbcf934cb88828d6cba4704a07ff969b930f83e5f4bfe9f720669ddeb2d8e8864736f6c634300080000333c73766720786d6c6e733d27687474703a2f2f7777772e77332e6f72672f323030302f73766727207072657365727665417370656374526174696f3d27784d696e594d696e206d656574272076696577426f783d273020302033353020333530273e3c7374796c653e2e62617365207b2066696c6c3a2077686974653b20666f6e742d66616d696c793a2073657269663b20666f6e742d73697a653a20323470783b207d3c2f7374796c653e3c726563742077696474683d273130302527206865696768743d2731303025272066696c6c3d27626c61636b27202f3e3c7465787420783d273530252720793d273530252720636c6173733d27626173652720646f6d696e616e742d626173656c696e653d276d6964646c652720746578742d616e63686f723d276d6964646c65273e",
  "linkReferences": {},
  "deployedLinkReferences": {}
}